:1000000019C020C01FC01EC01DC01CC01BC01AC00C
:1000100019C018C017C016C015C014C013C012C034
:1000200011C010C00FC00EC00DC00CC00BC00AC064
:1000300009C008C011241FBECFEFCDBFDFE3DEBF74
:1000400002D020C0DDCFE0E0F4E0808182608083D8
:1000500084B7886D84BFE0E6F0E083E1818380812E
:10006000806880832FE78AE196E0215080409040AD
:10007000E1F700C00000E0E0F4E0948182E089272D
:080080008483F0CFF894FFCF58
:00000001FF
